{
    "contractName": "LibEncoder",
    "abi": [
        {
            "inputs": [],
            "name": "EIP712_DOMAIN_HASH",
            "outputs": [
                {
                    "internalType": "bytes32",
                    "name": "",
                    "type": "bytes32"
                }
            ],
            "stateMutability": "view",
            "type": "function"
        }
    ],
    "bytecode": "608060405234801561001057600080fd5b506040516020016100209061011d565b60408051601f1981840301815282825280516020918201208383018352600b84526a0c1e08141c9bdd1bd8dbdb60aa1b938201939093528151808301835260018152601960f91b9082015290516100c192917ff0f24618f4c4be1e62e026fb039a20ef96f4495294817d1027ffaa6d1f70e61e917fad7c5bef027816a800da1736444fb58a807ef4c9603b7848673f7e3a68eb14a5916000913091016100e1565b60408051601f198184030181529190528051602090910120600055610193565b948552602085019390935260408401919091526001600160a01b0319166060808401919091521b6001600160601b031916606c82015260800190565b6c08a92a06e626488dedac2d2dc5609b1b81526b1cdd1c9a5b99c81b985b594b60a21b600d8201526e1cdd1c9a5b99c81d995c9cda5bdb8b608a1b60198201527f6164647265737320766572696679696e67436f6e7472616374000000000000006028820152602960f81b604182015260420190565b608c806101a16000396000f3fe6080604052348015600f57600080fd5b506004361060285760003560e01c8063e306f77914602d575b600080fd5b60336047565b604051603e9190604d565b60405180910390f35b60005481565b9081526020019056fea2646970667358221220051bcebbf65bea7a5cad2ffc6e7af10884ffc24bd73329a02abfdbf0f0cb141664736f6c634300060c0033",
    "sourcePath": "/Users/romanholubovskyi/Projects/Freelance/bladerunner/contracts/tokenlon/PMM.sol",
    "compiler": {
        "name": "solc",
        "version": "0.6.12+commit.27d51765"
    },
    "functionHashes": {
        "EIP712_DOMAIN_HASH()": "e306f779"
    },
    "gasEstimates": {
        "creation": {
            "codeDepositCost": "28000",
            "executionCost": "20803",
            "totalCost": "48803"
        },
        "external": {
            "EIP712_DOMAIN_HASH()": "1006"
        },
        "internal": {
            "encodeTransactionHash(uint256,address,bytes memory)": "infinite"
        }
    }
}