{
  "contractName": "calc",
  "abi": [
    {
      "constant": true,
      "inputs": [
        {
          "internalType": "uint256",
          "name": "amtA",
          "type": "uint256"
        },
        {
          "internalType": "uint256",
          "name": "amtB",
          "type": "uint256"
        },
        {
          "internalType": "uint256",
          "name": "resA",
          "type": "uint256"
        },
        {
          "internalType": "uint256",
          "name": "resB",
          "type": "uint256"
        }
      ],
      "name": "optimalDeposit",
      "outputs": [
        {
          "internalType": "uint256",
          "name": "swapAmt",
          "type": "uint256"
        },
        {
          "internalType": "bool",
          "name": "isReversed",
          "type": "bool"
        }
      ],
      "payable": false,
      "stateMutability": "pure",
      "type": "function"
    }
  ],
  "bytecode": "0x608060405234801561001057600080fd5b506105cf806100206000396000f3fe608060405234801561001057600080fd5b506004361061002b5760003560e01c80632054d12614610030575b600080fd5b61007a6004803603608081101561004657600080fd5b810190808035906020019092919080359060200190929190803590602001909291908035906020019092919050505061009b565b60405180838152602001821515151581526020019250505060405180910390f35b6000806100b184866100fc90919063ffffffff16565b6100c484886100fc90919063ffffffff16565b106100e0576100d586868686610182565b9150600090506100f3565b6100ec85878587610182565b9150600190505b94509492505050565b60008083141561010f576000905061017c565b600082840290508284828161012057fe5b0414610177576040517f08c379a000000000000000000000000000000000000000000000000000000000815260040180806020018281038252602181526020018061057a6021913960400191505060405180910390fd5b809150505b92915050565b600061019783856100fc90919063ffffffff16565b6101aa83876100fc90919063ffffffff16565b101561021e576040517f08c379a00000000000000000000000000000000000000000000000000000000081526004018080602001828103825260088152602001807f526576657273656400000000000000000000000000000000000000000000000081525060200191505060405180910390fd5b60006103e59050600061023c856107cd6100fc90919063ffffffff16565b9050600061027761025687896100fc90919063ffffffff16565b610269878b6100fc90919063ffffffff16565b61037790919063ffffffff16565b905060006102c6876102b8610295898c61040090919063ffffffff16565b6102aa6103e8876100fc90919063ffffffff16565b61048890919063ffffffff16565b6100fc90919063ffffffff16565b905060006102f060046102e284886100fc90919063ffffffff16565b6100fc90919063ffffffff16565b9050600061032161031c8361030e88896100fc90919063ffffffff16565b61040090919063ffffffff16565b610517565b90506000610338868361037790919063ffffffff16565b905060006103506002896100fc90919063ffffffff16565b9050610365818361048890919063ffffffff16565b98505050505050505050949350505050565b6000828211156103ef576040517f08c379a000000000000000000000000000000000000000000000000000000000815260040180806020018281038252601e8152602001807f536166654d6174683a207375627472616374696f6e206f766572666c6f77000081525060200191505060405180910390fd5b600082840390508091505092915050565b60008082840190508381101561047e576040517f08c379a000000000000000000000000000000000000000000000000000000000815260040180806020018281038252601b8152602001807f536166654d6174683a206164646974696f6e206f766572666c6f77000000000081525060200191505060405180910390fd5b8091505092915050565b60008082116104ff576040517f08c379a000000000000000000000000000000000000000000000000000000000815260040180806020018281038252601a8152602001807f536166654d6174683a206469766973696f6e206279207a65726f00000000000081525060200191505060405180910390fd5b600082848161050a57fe5b0490508091505092915050565b6000600382111561056657819050600060016002848161053357fe5b040190505b818110156105605780915060028182858161054f57fe5b04018161055857fe5b049050610538565b50610574565b6000821461057357600190505b5b91905056fe536166654d6174683a206d756c7469706c69636174696f6e206f766572666c6f77a265627a7a723158209581c60eb08c0f7904a5471381591f741e9e9b625977bc33a2fe4dc726f0341664736f6c63430005100032",
  "source": "pragma solidity ^0.5.0;\n\nlibrary Math {\n    function min(uint x, uint y) internal pure returns (uint z) {\n        z = x < y ? x : y;\n    }\n\n    // babylonian method (https://en.wikipedia.org/wiki/Methods_of_computing_square_roots#Babylonian_method)\n    function sqrt(uint y) internal pure returns (uint z) {\n        if (y > 3) {\n            z = y;\n            uint x = y / 2 + 1;\n            while (x < z) {\n                z = x;\n                x = (y / x + x) / 2;\n            }\n        } else if (y != 0) {\n            z = 1;\n        }\n    }\n}\n\nlibrary SafeMath {\n    /**\n     * @dev Returns the addition of two unsigned integers, reverting on\n     * overflow.\n     *\n     * Counterpart to Solidity's `+` operator.\n     *\n     * Requirements:\n     * - Addition cannot overflow.\n     */\n    function add(uint256 a, uint256 b) internal pure returns (uint256) {\n        uint256 c = a + b;\n        require(c >= a, \"SafeMath: addition overflow\");\n\n        return c;\n    }\n\n    /**\n     * @dev Returns the subtraction of two unsigned integers, reverting on\n     * overflow (when the result is negative).\n     *\n     * Counterpart to Solidity's `-` operator.\n     *\n     * Requirements:\n     * - Subtraction cannot overflow.\n     */\n    function sub(uint256 a, uint256 b) internal pure returns (uint256) {\n        require(b <= a, \"SafeMath: subtraction overflow\");\n        uint256 c = a - b;\n\n        return c;\n    }\n\n    /**\n     * @dev Returns the multiplication of two unsigned integers, reverting on\n     * overflow.\n     *\n     * Counterpart to Solidity's `*` operator.\n     *\n     * Requirements:\n     * - Multiplication cannot overflow.\n     */\n    function mul(uint256 a, uint256 b) internal pure returns (uint256) {\n        // Gas optimization: this is cheaper than requiring 'a' not being zero, but the\n        // benefit is lost if 'b' is also tested.\n        // See: https://github.com/OpenZeppelin/openzeppelin-solidity/pull/522\n        if (a == 0) {\n            return 0;\n        }\n\n        uint256 c = a * b;\n        require(c / a == b, \"SafeMath: multiplication overflow\");\n\n        return c;\n    }\n\n    /**\n     * @dev Returns the integer division of two unsigned integers. Reverts on\n     * division by zero. The result is rounded towards zero.\n     *\n     * Counterpart to Solidity's `/` operator. Note: this function uses a\n     * `revert` opcode (which leaves remaining gas untouched) while Solidity\n     * uses an invalid opcode to revert (consuming all remaining gas).\n     *\n     * Requirements:\n     * - The divisor cannot be zero.\n     */\n    function div(uint256 a, uint256 b) internal pure returns (uint256) {\n        // Solidity only automatically asserts when dividing by 0\n        require(b > 0, \"SafeMath: division by zero\");\n        uint256 c = a / b;\n        // assert(a == b * c + a % b); // There is no case in which this doesn't hold\n\n        return c;\n    }\n\n    /**\n     * @dev Returns the remainder of dividing two unsigned integers. (unsigned integer modulo),\n     * Reverts when dividing by zero.\n     *\n     * Counterpart to Solidity's `%` operator. This function uses a `revert`\n     * opcode (which leaves remaining gas untouched) while Solidity uses an\n     * invalid opcode to revert (consuming all remaining gas).\n     *\n     * Requirements:\n     * - The divisor cannot be zero.\n     */\n    function mod(uint256 a, uint256 b) internal pure returns (uint256) {\n        require(b != 0, \"SafeMath: modulo by zero\");\n        return a % b;\n    }\n}\n\ncontract calc {\n    using Math for uint;\n    using SafeMath for uint;\n/// @dev Compute optimal deposit amount\n    /// @param amtA amount of token A desired to deposit\n    /// @param amtB amonut of token B desired to deposit\n    /// @param resA amount of token A in reserve\n    /// @param resB amount of token B in reserve\n    function optimalDeposit(\n        uint256 amtA,\n        uint256 amtB,\n        uint256 resA,\n        uint256 resB\n    ) external pure returns (uint256 swapAmt, bool isReversed) {\n        if (amtA.mul(resB) >= amtB.mul(resA)) {\n            swapAmt = _optimalDepositA(amtA, amtB, resA, resB);\n            isReversed = false;\n        } else {\n            swapAmt = _optimalDepositA(amtB, amtA, resB, resA);\n            isReversed = true;\n        }\n    }\n\n    /// @dev Compute optimal deposit amount helper\n    /// @param amtA amount of token A desired to deposit\n    /// @param amtB amonut of token B desired to deposit\n    /// @param resA amount of token A in reserve\n    /// @param resB amount of token B in reserve\n    function _optimalDepositA(\n        uint256 amtA,\n        uint256 amtB,\n        uint256 resA,\n        uint256 resB\n    ) internal pure returns (uint256) {\n        require(amtA.mul(resB) >= amtB.mul(resA), \"Reversed\");\n\n        uint256 a = 997;\n        uint256 b = uint256(1997).mul(resA);\n        uint256 _c = (amtA.mul(resB)).sub(amtB.mul(resA));\n        uint256 c = _c.mul(1000).div(amtB.add(resB)).mul(resA);\n\n        uint256 d = a.mul(c).mul(4);\n        uint256 e = Math.sqrt(b.mul(b).add(d));\n\n        uint256 numerator = e.sub(b);\n        uint256 denominator = a.mul(2);\n\n        return numerator.div(denominator);\n    }\n}\n",
  "sourcePath": "/home/roman/Documents/Projects/front-running/contracts/alphaSwapAmtCalc.sol",
  "compiler": {
    "name": "solc",
    "version": "0.5.16+commit.9c3226ce.Emscripten.clang"
  },
  "schemaVersion": "3.3.3",
  "updatedAt": "2021-01-18T10:41:17.217Z",
  "devdoc": {
    "methods": {
      "optimalDeposit(uint256,uint256,uint256,uint256)": {
        "details": "Compute optimal deposit amount",
        "params": {
          "amtA": "amount of token A desired to deposit",
          "amtB": "amonut of token B desired to deposit",
          "resA": "amount of token A in reserve",
          "resB": "amount of token B in reserve"
        }
      }
    }
  },
  "userdoc": {
    "methods": {}
  }
}