{
  "contractName": "StrategyAddTwoSidesOptimal",
  "abi": [
    {
      "inputs": [
        {
          "internalType": "contract IUniswapV2Router02",
          "name": "_router",
          "type": "address"
        },
        {
          "internalType": "address",
          "name": "_goblin",
          "type": "address"
        }
      ],
      "payable": false,
      "stateMutability": "nonpayable",
      "type": "constructor"
    },
    {
      "anonymous": false,
      "inputs": [
        {
          "indexed": true,
          "internalType": "address",
          "name": "previousOwner",
          "type": "address"
        },
        {
          "indexed": true,
          "internalType": "address",
          "name": "newOwner",
          "type": "address"
        }
      ],
      "name": "OwnershipTransferred",
      "type": "event"
    },
    {
      "payable": true,
      "stateMutability": "payable",
      "type": "fallback"
    },
    {
      "constant": true,
      "inputs": [],
      "name": "factory",
      "outputs": [
        {
          "internalType": "contract IUniswapV2Factory",
          "name": "",
          "type": "address"
        }
      ],
      "payable": false,
      "stateMutability": "view",
      "type": "function"
    },
    {
      "constant": true,
      "inputs": [],
      "name": "goblin",
      "outputs": [
        {
          "internalType": "address",
          "name": "",
          "type": "address"
        }
      ],
      "payable": false,
      "stateMutability": "view",
      "type": "function"
    },
    {
      "constant": true,
      "inputs": [],
      "name": "isOwner",
      "outputs": [
        {
          "internalType": "bool",
          "name": "",
          "type": "bool"
        }
      ],
      "payable": false,
      "stateMutability": "view",
      "type": "function"
    },
    {
      "constant": true,
      "inputs": [],
      "name": "owner",
      "outputs": [
        {
          "internalType": "address",
          "name": "",
          "type": "address"
        }
      ],
      "payable": false,
      "stateMutability": "view",
      "type": "function"
    },
    {
      "constant": false,
      "inputs": [],
      "name": "renounceOwnership",
      "outputs": [],
      "payable": false,
      "stateMutability": "nonpayable",
      "type": "function"
    },
    {
      "constant": true,
      "inputs": [],
      "name": "router",
      "outputs": [
        {
          "internalType": "contract IUniswapV2Router02",
          "name": "",
          "type": "address"
        }
      ],
      "payable": false,
      "stateMutability": "view",
      "type": "function"
    },
    {
      "constant": false,
      "inputs": [
        {
          "internalType": "address",
          "name": "newOwner",
          "type": "address"
        }
      ],
      "name": "transferOwnership",
      "outputs": [],
      "payable": false,
      "stateMutability": "nonpayable",
      "type": "function"
    },
    {
      "constant": true,
      "inputs": [],
      "name": "weth",
      "outputs": [
        {
          "internalType": "address",
          "name": "",
          "type": "address"
        }
      ],
      "payable": false,
      "stateMutability": "view",
      "type": "function"
    },
    {
      "constant": true,
      "inputs": [],
      "name": "isGoblin",
      "outputs": [
        {
          "internalType": "bool",
          "name": "",
          "type": "bool"
        }
      ],
      "payable": false,
      "stateMutability": "view",
      "type": "function"
    },
    {
      "constant": false,
      "inputs": [
        {
          "internalType": "address",
          "name": "user",
          "type": "address"
        },
        {
          "internalType": "uint256",
          "name": "",
          "type": "uint256"
        },
        {
          "internalType": "bytes",
          "name": "data",
          "type": "bytes"
        }
      ],
      "name": "execute",
      "outputs": [],
      "payable": true,
      "stateMutability": "payable",
      "type": "function"
    },
    {
      "constant": false,
      "inputs": [
        {
          "internalType": "address",
          "name": "token",
          "type": "address"
        },
        {
          "internalType": "address",
          "name": "to",
          "type": "address"
        },
        {
          "internalType": "uint256",
          "name": "value",
          "type": "uint256"
        }
      ],
      "name": "recover",
      "outputs": [],
      "payable": false,
      "stateMutability": "nonpayable",
      "type": "function"
    }
  ],
  "bytecode": "0x60806040523480156200001157600080fd5b50604051620026e5380380620026e5833981810160405260408110156200003757600080fd5b810190808051906020019092919080519060200190929190505050336000806101000a81548173ffffffffffffffffffffffffffffffffffffffff021916908373ffffffffffffffffffffffffffffffffffffffff1602179055506000809054906101000a900473ffffffffffffffffffffffffffffffffffffffff1673ffffffffffffffffffffffffffffffffffffffff16600073ffffffffffffffffffffffffffffffffffffffff167f8be0079c531659141344cd1fd0a4f28419497f9722a3daafe3b4186f6b6457e060405160405180910390a3600180819055508173ffffffffffffffffffffffffffffffffffffffff1663c45a01556040518163ffffffff1660e01b815260040160206040518083038186803b1580156200015c57600080fd5b505afa15801562000171573d6000803e3d6000fd5b505050506040513d60208110156200018857600080fd5b8101908080519060200190929190505050600260006101000a81548173ffffffffffffffffffffffffffffffffffffffff021916908373ffffffffffffffffffffffffffffffffffffffff16021790555081600360006101000a81548173ffffffffffffffffffffffffffffffffffffffff021916908373ffffffffffffffffffffffffffffffffffffffff1602179055508173ffffffffffffffffffffffffffffffffffffffff1663ad5c46486040518163ffffffff1660e01b815260040160206040518083038186803b1580156200026157600080fd5b505afa15801562000276573d6000803e3d6000fd5b505050506040513d60208110156200028d57600080fd5b8101908080519060200190929190505050600460006101000a81548173ffffffffffffffffffffffffffffffffffffffff021916908373ffffffffffffffffffffffffffffffffffffffff16021790555080600560006101000a81548173ffffffffffffffffffffffffffffffffffffffff021916908373ffffffffffffffffffffffffffffffffffffffff16021790555050506123b480620003316000396000f3fe60806040526004361061009c5760003560e01c80638f32d59b116100645780638f32d59b1461020d578063b61d27f61461023c578063b7156cf9146102df578063c45a015514610336578063f2fde38b1461038d578063f887ea40146103de5761009c565b80631ec82cb81461009e5780633fc8cef31461011957806351a6187014610170578063715018a61461019f5780638da5cb5b146101b6575b005b3480156100aa57600080fd5b50610117600480360360608110156100c157600080fd5b81019080803573ffffffffffffffffffffffffffffffffffffffff169060200190929190803573ffffffffffffffffffffffffffffffffffffffff16906020019092919080359060200190929190505050610435565b005b34801561012557600080fd5b5061012e61056e565b604051808273ffffffffffffffffffffffffffffffffffffffff1673ffffffffffffffffffffffffffffffffffffffff16815260200191505060405180910390f35b34801561017c57600080fd5b50610185610594565b604051808215151515815260200191505060405180910390f35b3480156101ab57600080fd5b506101b46105ec565b005b3480156101c257600080fd5b506101cb610725565b604051808273ffffffffffffffffffffffffffffffffffffffff1673ffffffffffffffffffffffffffffffffffffffff16815260200191505060405180910390f35b34801561021957600080fd5b5061022261074e565b604051808215151515815260200191505060405180910390f35b6102dd6004803603606081101561025257600080fd5b81019080803573ffffffffffffffffffffffffffffffffffffffff169060200190929190803590602001909291908035906020019064010000000081111561029957600080fd5b8201836020820111156102ab57600080fd5b803590602001918460018302840111640100000000831117156102cd57600080fd5b90919293919293905050506107a5565b005b3480156102eb57600080fd5b506102f461153d565b604051808273ffffffffffffffffffffffffffffffffffffffff1673ffffffffffffffffffffffffffffffffffffffff16815260200191505060405180910390f35b34801561034257600080fd5b5061034b611563565b604051808273ffffffffffffffffffffffffffffffffffffffff1673ffffffffffffffffffffffffffffffffffffffff16815260200191505060405180910390f35b34801561039957600080fd5b506103dc600480360360208110156103b057600080fd5b81019080803573ffffffffffffffffffffffffffffffffffffffff169060200190929190505050611589565b005b3480156103ea57600080fd5b506103f361160f565b604051808273ffffffffffffffffffffffffffffffffffffffff1673ffffffffffffffffffffffffffffffffffffffff16815260200191505060405180910390f35b61043d61074e565b6104af576040517f08c379a00000000000000000000000000000000000000000000000000000000081526004018080602001828103825260208152602001807f4f776e61626c653a2063616c6c6572206973206e6f7420746865206f776e657281525060200191505060405180910390fd5b60018060008282540192505081905550600060015490506104f183838673ffffffffffffffffffffffffffffffffffffffff166116359092919063ffffffff16565b6001548114610568576040517f08c379a000000000000000000000000000000000000000000000000000000000815260040180806020018281038252601f8152602001807f5265656e7472616e637947756172643a207265656e7472616e742063616c6c0081525060200191505060405180910390fd5b50505050565b600460009054906101000a900473ffffffffffffffffffffffffffffffffffffffff1681565b6000600560009054906101000a900473ffffffffffffffffffffffffffffffffffffffff1673ffffffffffffffffffffffffffffffffffffffff163373ffffffffffffffffffffffffffffffffffffffff1614905090565b6105f461074e565b610666576040517f08c379a00000000000000000000000000000000000000000000000000000000081526004018080602001828103825260208152602001807f4f776e61626c653a2063616c6c6572206973206e6f7420746865206f776e657281525060200191505060405180910390fd5b600073ffffffffffffffffffffffffffffffffffffffff166000809054906101000a900473ffffffffffffffffffffffffffffffffffffffff1673ffffffffffffffffffffffffffffffffffffffff167f8be0079c531659141344cd1fd0a4f28419497f9722a3daafe3b4186f6b6457e060405160405180910390a360008060006101000a81548173ffffffffffffffffffffffffffffffffffffffff021916908373ffffffffffffffffffffffffffffffffffffffff160217905550565b60008060009054906101000a900473ffffffffffffffffffffffffffffffffffffffff16905090565b60008060009054906101000a900473ffffffffffffffffffffffffffffffffffffffff1673ffffffffffffffffffffffffffffffffffffffff163373ffffffffffffffffffffffffffffffffffffffff1614905090565b6107ad610594565b61081f576040517f08c379a00000000000000000000000000000000000000000000000000000000081526004018080602001828103825260188152602001807f63616c6c6572206973206e6f742074686520676f626c696e000000000000000081525060200191505060405180910390fd5b600180600082825401925050819055506000600154905060008060008585606081101561084b57600080fd5b81019080803573ffffffffffffffffffffffffffffffffffffffff16906020019092919080359060200190929190803590602001909291905050509250925092506000600260009054906101000a900473ffffffffffffffffffffffffffffffffffffffff1673ffffffffffffffffffffffffffffffffffffffff1663e6a4390585600460009054906101000a900473ffffffffffffffffffffffffffffffffffffffff166040518363ffffffff1660e01b8152600401808373ffffffffffffffffffffffffffffffffffffffff1673ffffffffffffffffffffffffffffffffffffffff1681526020018273ffffffffffffffffffffffffffffffffffffffff1673ffffffffffffffffffffffffffffffffffffffff1681526020019250505060206040518083038186803b15801561098357600080fd5b505afa158015610997573d6000803e3d6000fd5b505050506040513d60208110156109ad57600080fd5b8101908080519060200190929190505050905060008311156109f7576109f68930858773ffffffffffffffffffffffffffffffffffffffff1661182e909392919063ffffffff16565b5b60004790506000806000808573ffffffffffffffffffffffffffffffffffffffff16630902f1ac6040518163ffffffff1660e01b815260040160606040518083038186803b158015610a4857600080fd5b505afa158015610a5c573d6000803e3d6000fd5b505050506040513d6060811015610a7257600080fd5b81019080805190602001909291908051906020019092919080519060200190929190505050506dffffffffffffffffffffffffffff1691506dffffffffffffffffffffffffffff169150600080600460009054906101000a900473ffffffffffffffffffffffffffffffffffffffff1673ffffffffffffffffffffffffffffffffffffffff168873ffffffffffffffffffffffffffffffffffffffff16630dfe16816040518163ffffffff1660e01b815260040160206040518083038186803b158015610b3e57600080fd5b505afa158015610b52573d6000803e3d6000fd5b505050506040513d6020811015610b6857600080fd5b810190808051906020019092919050505073ffffffffffffffffffffffffffffffffffffffff1614610b9b578284610b9e565b83835b91509150610bcc87610bc58d73ffffffffffffffffffffffffffffffffffffffff16611a5c565b8484611b1d565b809650819750505050505050610c26600360009054906101000a900473ffffffffffffffffffffffffffffffffffffffff1660008973ffffffffffffffffffffffffffffffffffffffff16611b7e9092919063ffffffff16565b610c93600360009054906101000a900473ffffffffffffffffffffffffffffffffffffffff167fffffffffffffffffffffffffffffffffffffffffffffffffffffffffffffffff8973ffffffffffffffffffffffffffffffffffffffff16611b7e9092919063ffffffff16565b60606002604051908082528060200260200182016040528015610cc55781602001602082028038833980820191505090505b50905081610cf657600460009054906101000a900473ffffffffffffffffffffffffffffffffffffffff1688610d1b565b87600460009054906101000a900473ffffffffffffffffffffffffffffffffffffffff165b82600081518110610d2857fe5b6020026020010183600181518110610d3c57fe5b602002602001018273ffffffffffffffffffffffffffffffffffffffff1673ffffffffffffffffffffffffffffffffffffffff168152508273ffffffffffffffffffffffffffffffffffffffff1673ffffffffffffffffffffffffffffffffffffffff1681525050508115610f8957600360009054906101000a900473ffffffffffffffffffffffffffffffffffffffff1673ffffffffffffffffffffffffffffffffffffffff166318cbafe58460008430426040518663ffffffff1660e01b815260040180868152602001858152602001806020018473ffffffffffffffffffffffffffffffffffffffff1673ffffffffffffffffffffffffffffffffffffffff168152602001838152602001828103825285818151815260200191508051906020019060200280838360005b83811015610e85578082015181840152602081019050610e6a565b505050509050019650505050505050600060405180830381600087803b158015610eae57600080fd5b505af1158015610ec2573d6000803e3d6000fd5b505050506040513d6000823e3d601f19601f820116820180604052506020811015610eec57600080fd5b8101908080516040519392919084640100000000821115610f0c57600080fd5b83820191506020820185811115610f2257600080fd5b8251866020820283011164010000000082111715610f3f57600080fd5b8083526020830192505050908051906020019060200280838360005b83811015610f76578082015181840152602081019050610f5b565b505050509050016040525050505061115c565b600360009054906101000a900473ffffffffffffffffffffffffffffffffffffffff1673ffffffffffffffffffffffffffffffffffffffff16637ff36ab58460008430426040518663ffffffff1660e01b815260040180858152602001806020018473ffffffffffffffffffffffffffffffffffffffff1673ffffffffffffffffffffffffffffffffffffffff168152602001838152602001828103825285818151815260200191508051906020019060200280838360005b8381101561105d578082015181840152602081019050611042565b50505050905001955050505050506000604051808303818588803b15801561108457600080fd5b505af1158015611098573d6000803e3d6000fd5b50505050506040513d6000823e3d601f19601f8201168201806040525060208110156110c357600080fd5b81019080805160405193929190846401000000008211156110e357600080fd5b838201915060208201858111156110f957600080fd5b825186602082028301116401000000008211171561111657600080fd5b8083526020830192505050908051906020019060200280838360005b8381101561114d578082015181840152602081019050611132565b50505050905001604052505050505b6000600360009054906101000a900473ffffffffffffffffffffffffffffffffffffffff1673ffffffffffffffffffffffffffffffffffffffff1663f305d719478b6111bd8d73ffffffffffffffffffffffffffffffffffffffff16611a5c565b60008030426040518863ffffffff1660e01b8152600401808773ffffffffffffffffffffffffffffffffffffffff1673ffffffffffffffffffffffffffffffffffffffff1681526020018681526020018581526020018481526020018373ffffffffffffffffffffffffffffffffffffffff1673ffffffffffffffffffffffffffffffffffffffff16815260200182815260200196505050505050506060604051808303818588803b15801561127257600080fd5b505af1158015611286573d6000803e3d6000fd5b50505050506040513d606081101561129d57600080fd5b81019080805190602001909291908051906020019092919080519060200190929190505050925050508681101561133c576040517f08c379a000000000000000000000000000000000000000000000000000000000815260040180806020018281038252601f8152602001807f696e73756666696369656e74204c5020746f6b656e732072656365697665640081525060200191505060405180910390fd5b8573ffffffffffffffffffffffffffffffffffffffff1663a9059cbb338873ffffffffffffffffffffffffffffffffffffffff166370a08231306040518263ffffffff1660e01b8152600401808273ffffffffffffffffffffffffffffffffffffffff1673ffffffffffffffffffffffffffffffffffffffff16815260200191505060206040518083038186803b1580156113d657600080fd5b505afa1580156113ea573d6000803e3d6000fd5b505050506040513d602081101561140057600080fd5b81019080805190602001909291905050506040518363ffffffff1660e01b8152600401808373ffffffffffffffffffffffffffffffffffffffff1673ffffffffffffffffffffffffffffffffffffffff16815260200182815260200192505050602060405180830381600087803b15801561147a57600080fd5b505af115801561148e573d6000803e3d6000fd5b505050506040513d60208110156114a457600080fd5b8101908080519060200190929190505050505050505050505050506001548114611536576040517f08c379a000000000000000000000000000000000000000000000000000000000815260040180806020018281038252601f8152602001807f5265656e7472616e637947756172643a207265656e7472616e742063616c6c0081525060200191505060405180910390fd5b5050505050565b600560009054906101000a900473ffffffffffffffffffffffffffffffffffffffff1681565b600260009054906101000a900473ffffffffffffffffffffffffffffffffffffffff1681565b61159161074e565b611603576040517f08c379a00000000000000000000000000000000000000000000000000000000081526004018080602001828103825260208152602001807f4f776e61626c653a2063616c6c6572206973206e6f7420746865206f776e657281525060200191505060405180910390fd5b61160c81611d77565b50565b600360009054906101000a900473ffffffffffffffffffffffffffffffffffffffff1681565b600060608473ffffffffffffffffffffffffffffffffffffffff1663a9059cbb8585604051602401808373ffffffffffffffffffffffffffffffffffffffff1673ffffffffffffffffffffffffffffffffffffffff168152602001828152602001925050506040516020818303038152906040529060e01b6020820180517bffffffffffffffffffffffffffffffffffffffffffffffffffffffff83818316178352505050506040518082805190602001908083835b6020831061170e57805182526020820191506020810190506020830392506116eb565b6001836020036101000a0380198251168184511680821785525050505050509050019150506000604051808303816000865af19150503d8060008114611770576040519150601f19603f3d011682016040523d82523d6000602084013e611775565b606091505b50915091508180156117b557506000815114806117b457508080602001905160208110156117a257600080fd5b81019080805190602001909291905050505b5b611827576040517f08c379a000000000000000000000000000000000000000000000000000000000815260040180806020018281038252600d8152602001807f21736166655472616e736665720000000000000000000000000000000000000081525060200191505060405180910390fd5b5050505050565b600060608573ffffffffffffffffffffffffffffffffffffffff166323b872dd868686604051602401808473ffffffffffffffffffffffffffffffffffffffff1673ffffffffffffffffffffffffffffffffffffffff1681526020018373ffffffffffffffffffffffffffffffffffffffff1673ffffffffffffffffffffffffffffffffffffffff16815260200182815260200193505050506040516020818303038152906040529060e01b6020820180517bffffffffffffffffffffffffffffffffffffffffffffffffffffffff83818316178352505050506040518082805190602001908083835b6020831061193b5780518252602082019150602081019050602083039250611918565b6001836020036101000a0380198251168184511680821785525050505050509050019150506000604051808303816000865af19150503d806000811461199d576040519150601f19603f3d011682016040523d82523d6000602084013e6119a2565b606091505b50915091508180156119e257506000815114806119e157508080602001905160208110156119cf57600080fd5b81019080805190602001909291905050505b5b611a54576040517f08c379a00000000000000000000000000000000000000000000000000000000081526004018080602001828103825260118152602001807f21736166655472616e7366657246726f6d00000000000000000000000000000081525060200191505060405180910390fd5b505050505050565b60008173ffffffffffffffffffffffffffffffffffffffff166370a08231306040518263ffffffff1660e01b8152600401808273ffffffffffffffffffffffffffffffffffffffff1673ffffffffffffffffffffffffffffffffffffffff16815260200191505060206040518083038186803b158015611adb57600080fd5b505afa158015611aef573d6000803e3d6000fd5b505050506040513d6020811015611b0557600080fd5b81019080805190602001909291905050509050919050565b600080611b338486611ebb90919063ffffffff16565b611b468488611ebb90919063ffffffff16565b10611b6257611b5786868686611f41565b915060009050611b75565b611b6e85878587611f41565b9150600190505b94509492505050565b600060608473ffffffffffffffffffffffffffffffffffffffff1663095ea7b38585604051602401808373ffffffffffffffffffffffffffffffffffffffff1673ffffffffffffffffffffffffffffffffffffffff168152602001828152602001925050506040516020818303038152906040529060e01b6020820180517bffffffffffffffffffffffffffffffffffffffffffffffffffffffff83818316178352505050506040518082805190602001908083835b60208310611c575780518252602082019150602081019050602083039250611c34565b6001836020036101000a0380198251168184511680821785525050505050509050019150506000604051808303816000865af19150503d8060008114611cb9576040519150601f19603f3d011682016040523d82523d6000602084013e611cbe565b606091505b5091509150818015611cfe5750600081511480611cfd5750808060200190516020811015611ceb57600080fd5b81019080805190602001909291905050505b5b611d70576040517f08c379a000000000000000000000000000000000000000000000000000000000815260040180806020018281038252600c8152602001807f2173616665417070726f7665000000000000000000000000000000000000000081525060200191505060405180910390fd5b5050505050565b600073ffffffffffffffffffffffffffffffffffffffff168173ffffffffffffffffffffffffffffffffffffffff161415611dfd576040517f08c379a00000000000000000000000000000000000000000000000000000000081526004018080602001828103825260268152602001806123396026913960400191505060405180910390fd5b8073ffffffffffffffffffffffffffffffffffffffff166000809054906101000a900473ffffffffffffffffffffffffffffffffffffffff1673ffffffffffffffffffffffffffffffffffffffff167f8be0079c531659141344cd1fd0a4f28419497f9722a3daafe3b4186f6b6457e060405160405180910390a3806000806101000a81548173ffffffffffffffffffffffffffffffffffffffff021916908373ffffffffffffffffffffffffffffffffffffffff16021790555050565b600080831415611ece5760009050611f3b565b6000828402905082848281611edf57fe5b0414611f36576040517f08c379a000000000000000000000000000000000000000000000000000000000815260040180806020018281038252602181526020018061235f6021913960400191505060405180910390fd5b809150505b92915050565b6000611f568385611ebb90919063ffffffff16565b611f698387611ebb90919063ffffffff16565b1015611fdd576040517f08c379a00000000000000000000000000000000000000000000000000000000081526004018080602001828103825260088152602001807f526576657273656400000000000000000000000000000000000000000000000081525060200191505060405180910390fd5b60006103e590506000611ffb856107cd611ebb90919063ffffffff16565b905060006120366120158789611ebb90919063ffffffff16565b612028878b611ebb90919063ffffffff16565b61213690919063ffffffff16565b9050600061208587612077612054898c6121bf90919063ffffffff16565b6120696103e887611ebb90919063ffffffff16565b61224790919063ffffffff16565b611ebb90919063ffffffff16565b905060006120af60046120a18488611ebb90919063ffffffff16565b611ebb90919063ffffffff16565b905060006120e06120db836120cd8889611ebb90919063ffffffff16565b6121bf90919063ffffffff16565b6122d6565b905060006120f7868361213690919063ffffffff16565b9050600061210f600289611ebb90919063ffffffff16565b9050612124818361224790919063ffffffff16565b98505050505050505050949350505050565b6000828211156121ae576040517f08c379a000000000000000000000000000000000000000000000000000000000815260040180806020018281038252601e8152602001807f536166654d6174683a207375627472616374696f6e206f766572666c6f77000081525060200191505060405180910390fd5b600082840390508091505092915050565b60008082840190508381101561223d576040517f08c379a000000000000000000000000000000000000000000000000000000000815260040180806020018281038252601b8152602001807f536166654d6174683a206164646974696f6e206f766572666c6f77000000000081525060200191505060405180910390fd5b8091505092915050565b60008082116122be576040517f08c379a000000000000000000000000000000000000000000000000000000000815260040180806020018281038252601a8152602001807f536166654d6174683a206469766973696f6e206279207a65726f00000000000081525060200191505060405180910390fd5b60008284816122c957fe5b0490508091505092915050565b600060038211156123255781905060006001600284816122f257fe5b040190505b8181101561231f5780915060028182858161230e57fe5b04018161231757fe5b0490506122f7565b50612333565b6000821461233257600190505b5b91905056fe4f776e61626c653a206e6577206f776e657220697320746865207a65726f2061646472657373536166654d6174683a206d756c7469706c69636174696f6e206f766572666c6f77a265627a7a7231582036567b0345369693873f0e12ec2b61d811e47effef51ae25c8e2a3ea91dddd9064736f6c63430005100032",
  "source": "/**\n *Submitted for verification at Etherscan.io on 2020-10-22\n*/\n\n// File: openzeppelin-solidity-2.3.0/contracts/ownership/Ownable.sol\n\npragma solidity ^0.5.0;\n\n/**\n * @dev Contract module which provides a basic access control mechanism, where\n * there is an account (an owner) that can be granted exclusive access to\n * specific functions.\n *\n * This module is used through inheritance. It will make available the modifier\n * `onlyOwner`, which can be aplied to your functions to restrict their use to\n * the owner.\n */\ncontract Ownable {\n    address private _owner;\n\n    event OwnershipTransferred(address indexed previousOwner, address indexed newOwner);\n\n    /**\n     * @dev Initializes the contract setting the deployer as the initial owner.\n     */\n    constructor () internal {\n        _owner = msg.sender;\n        emit OwnershipTransferred(address(0), _owner);\n    }\n\n    /**\n     * @dev Returns the address of the current owner.\n     */\n    function owner() public view returns (address) {\n        return _owner;\n    }\n\n    /**\n     * @dev Throws if called by any account other than the owner.\n     */\n    modifier onlyOwner() {\n        require(isOwner(), \"Ownable: caller is not the owner\");\n        _;\n    }\n\n    /**\n     * @dev Returns true if the caller is the current owner.\n     */\n    function isOwner() public view returns (bool) {\n        return msg.sender == _owner;\n    }\n\n    /**\n     * @dev Leaves the contract without owner. It will not be possible to call\n     * `onlyOwner` functions anymore. Can only be called by the current owner.\n     *\n     * > Note: Renouncing ownership will leave the contract without an owner,\n     * thereby removing any functionality that is only available to the owner.\n     */\n    function renounceOwnership() public onlyOwner {\n        emit OwnershipTransferred(_owner, address(0));\n        _owner = address(0);\n    }\n\n    /**\n     * @dev Transfers ownership of the contract to a new account (`newOwner`).\n     * Can only be called by the current owner.\n     */\n    function transferOwnership(address newOwner) public onlyOwner {\n        _transferOwnership(newOwner);\n    }\n\n    /**\n     * @dev Transfers ownership of the contract to a new account (`newOwner`).\n     */\n    function _transferOwnership(address newOwner) internal {\n        require(newOwner != address(0), \"Ownable: new owner is the zero address\");\n        emit OwnershipTransferred(_owner, newOwner);\n        _owner = newOwner;\n    }\n}\n\n// File: openzeppelin-solidity-2.3.0/contracts/math/SafeMath.sol\n\npragma solidity ^0.5.0;\n\n/**\n * @dev Wrappers over Solidity's arithmetic operations with added overflow\n * checks.\n *\n * Arithmetic operations in Solidity wrap on overflow. This can easily result\n * in bugs, because programmers usually assume that an overflow raises an\n * error, which is the standard behavior in high level programming languages.\n * `SafeMath` restores this intuition by reverting the transaction when an\n * operation overflows.\n *\n * Using this library instead of the unchecked operations eliminates an entire\n * class of bugs, so it's recommended to use it always.\n */\nlibrary SafeMath {\n    /**\n     * @dev Returns the addition of two unsigned integers, reverting on\n     * overflow.\n     *\n     * Counterpart to Solidity's `+` operator.\n     *\n     * Requirements:\n     * - Addition cannot overflow.\n     */\n    function add(uint256 a, uint256 b) internal pure returns (uint256) {\n        uint256 c = a + b;\n        require(c >= a, \"SafeMath: addition overflow\");\n\n        return c;\n    }\n\n    /**\n     * @dev Returns the subtraction of two unsigned integers, reverting on\n     * overflow (when the result is negative).\n     *\n     * Counterpart to Solidity's `-` operator.\n     *\n     * Requirements:\n     * - Subtraction cannot overflow.\n     */\n    function sub(uint256 a, uint256 b) internal pure returns (uint256) {\n        require(b <= a, \"SafeMath: subtraction overflow\");\n        uint256 c = a - b;\n\n        return c;\n    }\n\n    /**\n     * @dev Returns the multiplication of two unsigned integers, reverting on\n     * overflow.\n     *\n     * Counterpart to Solidity's `*` operator.\n     *\n     * Requirements:\n     * - Multiplication cannot overflow.\n     */\n    function mul(uint256 a, uint256 b) internal pure returns (uint256) {\n        // Gas optimization: this is cheaper than requiring 'a' not being zero, but the\n        // benefit is lost if 'b' is also tested.\n        // See: https://github.com/OpenZeppelin/openzeppelin-solidity/pull/522\n        if (a == 0) {\n            return 0;\n        }\n\n        uint256 c = a * b;\n        require(c / a == b, \"SafeMath: multiplication overflow\");\n\n        return c;\n    }\n\n    /**\n     * @dev Returns the integer division of two unsigned integers. Reverts on\n     * division by zero. The result is rounded towards zero.\n     *\n     * Counterpart to Solidity's `/` operator. Note: this function uses a\n     * `revert` opcode (which leaves remaining gas untouched) while Solidity\n     * uses an invalid opcode to revert (consuming all remaining gas).\n     *\n     * Requirements:\n     * - The divisor cannot be zero.\n     */\n    function div(uint256 a, uint256 b) internal pure returns (uint256) {\n        // Solidity only automatically asserts when dividing by 0\n        require(b > 0, \"SafeMath: division by zero\");\n        uint256 c = a / b;\n        // assert(a == b * c + a % b); // There is no case in which this doesn't hold\n\n        return c;\n    }\n\n    /**\n     * @dev Returns the remainder of dividing two unsigned integers. (unsigned integer modulo),\n     * Reverts when dividing by zero.\n     *\n     * Counterpart to Solidity's `%` operator. This function uses a `revert`\n     * opcode (which leaves remaining gas untouched) while Solidity uses an\n     * invalid opcode to revert (consuming all remaining gas).\n     *\n     * Requirements:\n     * - The divisor cannot be zero.\n     */\n    function mod(uint256 a, uint256 b) internal pure returns (uint256) {\n        require(b != 0, \"SafeMath: modulo by zero\");\n        return a % b;\n    }\n}\n\n// File: openzeppelin-solidity-2.3.0/contracts/utils/ReentrancyGuard.sol\n\npragma solidity ^0.5.0;\n\n/**\n * @dev Contract module that helps prevent reentrant calls to a function.\n *\n * Inheriting from `ReentrancyGuard` will make the `nonReentrant` modifier\n * available, which can be aplied to functions to make sure there are no nested\n * (reentrant) calls to them.\n *\n * Note that because there is a single `nonReentrant` guard, functions marked as\n * `nonReentrant` may not call one another. This can be worked around by making\n * those functions `private`, and then adding `external` `nonReentrant` entry\n * points to them.\n */\ncontract ReentrancyGuard {\n    /// @dev counter to allow mutex lock with only one SSTORE operation\n    uint256 private _guardCounter;\n\n    constructor () internal {\n        // The counter starts at one to prevent changing it from zero to a non-zero\n        // value, which is a more expensive operation.\n        _guardCounter = 1;\n    }\n\n    /**\n     * @dev Prevents a contract from calling itself, directly or indirectly.\n     * Calling a `nonReentrant` function from another `nonReentrant`\n     * function is not supported. It is possible to prevent this from happening\n     * by making the `nonReentrant` function external, and make it call a\n     * `private` function that does the actual work.\n     */\n    modifier nonReentrant() {\n        _guardCounter += 1;\n        uint256 localCounter = _guardCounter;\n        _;\n        require(localCounter == _guardCounter, \"ReentrancyGuard: reentrant call\");\n    }\n}\n\n// File: @uniswap/v2-core/contracts/interfaces/IUniswapV2Factory.sol\n\npragma solidity >=0.5.0;\n\ninterface IUniswapV2Factory {\n    event PairCreated(address indexed token0, address indexed token1, address pair, uint);\n\n    function feeTo() external view returns (address);\n    function feeToSetter() external view returns (address);\n\n    function getPair(address tokenA, address tokenB) external view returns (address pair);\n    function allPairs(uint) external view returns (address pair);\n    function allPairsLength() external view returns (uint);\n\n    function createPair(address tokenA, address tokenB) external returns (address pair);\n\n    function setFeeTo(address) external;\n    function setFeeToSetter(address) external;\n}\n\n// File: @uniswap/v2-core/contracts/interfaces/IUniswapV2Pair.sol\n\npragma solidity >=0.5.0;\n\ninterface IUniswapV2Pair {\n    event Approval(address indexed owner, address indexed spender, uint value);\n    event Transfer(address indexed from, address indexed to, uint value);\n\n    function name() external pure returns (string memory);\n    function symbol() external pure returns (string memory);\n    function decimals() external pure returns (uint8);\n    function totalSupply() external view returns (uint);\n    function balanceOf(address owner) external view returns (uint);\n    function allowance(address owner, address spender) external view returns (uint);\n\n    function approve(address spender, uint value) external returns (bool);\n    function transfer(address to, uint value) external returns (bool);\n    function transferFrom(address from, address to, uint value) external returns (bool);\n\n    function DOMAIN_SEPARATOR() external view returns (bytes32);\n    function PERMIT_TYPEHASH() external pure returns (bytes32);\n    function nonces(address owner) external view returns (uint);\n\n    function permit(address owner, address spender, uint value, uint deadline, uint8 v, bytes32 r, bytes32 s) external;\n\n    event Mint(address indexed sender, uint amount0, uint amount1);\n    event Burn(address indexed sender, uint amount0, uint amount1, address indexed to);\n    event Swap(\n        address indexed sender,\n        uint amount0In,\n        uint amount1In,\n        uint amount0Out,\n        uint amount1Out,\n        address indexed to\n    );\n    event Sync(uint112 reserve0, uint112 reserve1);\n\n    function MINIMUM_LIQUIDITY() external pure returns (uint);\n    function factory() external view returns (address);\n    function token0() external view returns (address);\n    function token1() external view returns (address);\n    function getReserves() external view returns (uint112 reserve0, uint112 reserve1, uint32 blockTimestampLast);\n    function price0CumulativeLast() external view returns (uint);\n    function price1CumulativeLast() external view returns (uint);\n    function kLast() external view returns (uint);\n\n    function mint(address to) external returns (uint liquidity);\n    function burn(address to) external returns (uint amount0, uint amount1);\n    function swap(uint amount0Out, uint amount1Out, address to, bytes calldata data) external;\n    function skim(address to) external;\n    function sync() external;\n\n    function initialize(address, address) external;\n}\n\n// File: @uniswap/v2-core/contracts/libraries/Math.sol\n\npragma solidity =0.5.16;\n\n// a library for performing various math operations\n\nlibrary Math {\n    function min(uint x, uint y) internal pure returns (uint z) {\n        z = x < y ? x : y;\n    }\n\n    // babylonian method (https://en.wikipedia.org/wiki/Methods_of_computing_square_roots#Babylonian_method)\n    function sqrt(uint y) internal pure returns (uint z) {\n        if (y > 3) {\n            z = y;\n            uint x = y / 2 + 1;\n            while (x < z) {\n                z = x;\n                x = (y / x + x) / 2;\n            }\n        } else if (y != 0) {\n            z = 1;\n        }\n    }\n}\n\n// File: contracts/5/uniswap/IUniswapV2Router02.sol\n\npragma solidity >=0.5.0;\n\ninterface IUniswapV2Router02 {\n    function factory() external pure returns (address);\n\n    function WETH() external pure returns (address);\n\n    function addLiquidity(\n        address tokenA,\n        address tokenB,\n        uint256 amountADesired,\n        uint256 amountBDesired,\n        uint256 amountAMin,\n        uint256 amountBMin,\n        address to,\n        uint256 deadline\n    )\n        external\n        returns (\n            uint256 amountA,\n            uint256 amountB,\n            uint256 liquidity\n        );\n\n    function addLiquidityETH(\n        address token,\n        uint256 amountTokenDesired,\n        uint256 amountTokenMin,\n        uint256 amountETHMin,\n        address to,\n        uint256 deadline\n    )\n        external\n        payable\n        returns (\n            uint256 amountToken,\n            uint256 amountETH,\n            uint256 liquidity\n        );\n\n    function removeLiquidity(\n        address tokenA,\n        address tokenB,\n        uint256 liquidity,\n        uint256 amountAMin,\n        uint256 amountBMin,\n        address to,\n        uint256 deadline\n    ) external returns (uint256 amountA, uint256 amountB);\n\n    function removeLiquidityETH(\n        address token,\n        uint256 liquidity,\n        uint256 amountTokenMin,\n        uint256 amountETHMin,\n        address to,\n        uint256 deadline\n    ) external returns (uint256 amountToken, uint256 amountETH);\n\n    function removeLiquidityWithPermit(\n        address tokenA,\n        address tokenB,\n        uint256 liquidity,\n        uint256 amountAMin,\n        uint256 amountBMin,\n        address to,\n        uint256 deadline,\n        bool approveMax,\n        uint8 v,\n        bytes32 r,\n        bytes32 s\n    ) external returns (uint256 amountA, uint256 amountB);\n\n    function removeLiquidityETHWithPermit(\n        address token,\n        uint256 liquidity,\n        uint256 amountTokenMin,\n        uint256 amountETHMin,\n        address to,\n        uint256 deadline,\n        bool approveMax,\n        uint8 v,\n        bytes32 r,\n        bytes32 s\n    ) external returns (uint256 amountToken, uint256 amountETH);\n\n    function swapExactTokensForTokens(\n        uint256 amountIn,\n        uint256 amountOutMin,\n        address[] calldata path,\n        address to,\n        uint256 deadline\n    ) external returns (uint256[] memory amounts);\n\n    function swapTokensForExactTokens(\n        uint256 amountOut,\n        uint256 amountInMax,\n        address[] calldata path,\n        address to,\n        uint256 deadline\n    ) external returns (uint256[] memory amounts);\n\n    function swapExactETHForTokens(\n        uint256 amountOutMin,\n        address[] calldata path,\n        address to,\n        uint256 deadline\n    ) external payable returns (uint256[] memory amounts);\n\n    function swapTokensForExactETH(\n        uint256 amountOut,\n        uint256 amountInMax,\n        address[] calldata path,\n        address to,\n        uint256 deadline\n    ) external returns (uint256[] memory amounts);\n\n    function swapExactTokensForETH(\n        uint256 amountIn,\n        uint256 amountOutMin,\n        address[] calldata path,\n        address to,\n        uint256 deadline\n    ) external returns (uint256[] memory amounts);\n\n    function swapETHForExactTokens(\n        uint256 amountOut,\n        address[] calldata path,\n        address to,\n        uint256 deadline\n    ) external payable returns (uint256[] memory amounts);\n\n    function quote(\n        uint256 amountA,\n        uint256 reserveA,\n        uint256 reserveB\n    ) external pure returns (uint256 amountB);\n\n    function getAmountOut(\n        uint256 amountIn,\n        uint256 reserveIn,\n        uint256 reserveOut\n    ) external pure returns (uint256 amountOut);\n\n    function getAmountIn(\n        uint256 amountOut,\n        uint256 reserveIn,\n        uint256 reserveOut\n    ) external pure returns (uint256 amountIn);\n\n    function getAmountsOut(uint256 amountIn, address[] calldata path)\n        external\n        view\n        returns (uint256[] memory amounts);\n\n    function getAmountsIn(uint256 amountOut, address[] calldata path)\n        external\n        view\n        returns (uint256[] memory amounts);\n\n    function removeLiquidityETHSupportingFeeOnTransferTokens(\n        address token,\n        uint256 liquidity,\n        uint256 amountTokenMin,\n        uint256 amountETHMin,\n        address to,\n        uint256 deadline\n    ) external returns (uint256 amountETH);\n\n    function removeLiquidityETHWithPermitSupportingFeeOnTransferTokens(\n        address token,\n        uint256 liquidity,\n        uint256 amountTokenMin,\n        uint256 amountETHMin,\n        address to,\n        uint256 deadline,\n        bool approveMax,\n        uint8 v,\n        bytes32 r,\n        bytes32 s\n    ) external returns (uint256 amountETH);\n\n    function swapExactTokensForTokensSupportingFeeOnTransferTokens(\n        uint256 amountIn,\n        uint256 amountOutMin,\n        address[] calldata path,\n        address to,\n        uint256 deadline\n    ) external;\n\n    function swapExactETHForTokensSupportingFeeOnTransferTokens(\n        uint256 amountOutMin,\n        address[] calldata path,\n        address to,\n        uint256 deadline\n    ) external payable;\n\n    function swapExactTokensForETHSupportingFeeOnTransferTokens(\n        uint256 amountIn,\n        uint256 amountOutMin,\n        address[] calldata path,\n        address to,\n        uint256 deadline\n    ) external;\n}\n\n// File: contracts/5/SafeToken.sol\n\npragma solidity 0.5.16;\n\ninterface ERC20Interface {\n    function balanceOf(address user) external view returns (uint256);\n}\n\nlibrary SafeToken {\n    function myBalance(address token) internal view returns (uint256) {\n        return ERC20Interface(token).balanceOf(address(this));\n    }\n\n    function balanceOf(address token, address user) internal view returns (uint256) {\n        return ERC20Interface(token).balanceOf(user);\n    }\n\n    function safeApprove(address token, address to, uint256 value) internal {\n        // bytes4(keccak256(bytes('approve(address,uint256)')));\n        (bool success, bytes memory data) = token.call(abi.encodeWithSelector(0x095ea7b3, to, value));\n        require(success && (data.length == 0 || abi.decode(data, (bool))), \"!safeApprove\");\n    }\n\n    function safeTransfer(address token, address to, uint256 value) internal {\n        // bytes4(keccak256(bytes('transfer(address,uint256)')));\n        (bool success, bytes memory data) = token.call(abi.encodeWithSelector(0xa9059cbb, to, value));\n        require(success && (data.length == 0 || abi.decode(data, (bool))), \"!safeTransfer\");\n    }\n\n    function safeTransferFrom(address token, address from, address to, uint256 value) internal {\n        // bytes4(keccak256(bytes('transferFrom(address,address,uint256)')));\n        (bool success, bytes memory data) = token.call(abi.encodeWithSelector(0x23b872dd, from, to, value));\n        require(success && (data.length == 0 || abi.decode(data, (bool))), \"!safeTransferFrom\");\n    }\n\n    function safeTransferETH(address to, uint256 value) internal {\n        (bool success, ) = to.call.value(value)(new bytes(0));\n        require(success, \"!safeTransferETH\");\n    }\n}\n\n// File: contracts/5/Strategy.sol\n\npragma solidity 0.5.16;\n\ninterface Strategy {\n    /// @dev Execute worker strategy. Take LP tokens + ETH. Return LP tokens + ETH.\n    /// @param user The original user that is interacting with the operator.\n    /// @param debt The user's total debt, for better decision making context.\n    /// @param data Extra calldata information passed along to this strategy.\n    function execute(address user, uint256 debt, bytes calldata data) external payable;\n}\n\n// File: contracts/5/StrategyAddTwoSidesOptimal.sol\n\npragma solidity 0.5.16;\n\n\n\n\n\n\n\n\n\n\ncontract StrategyAddTwoSidesOptimal is Ownable, ReentrancyGuard, Strategy {\n    using SafeToken for address;\n    using SafeMath for uint256;\n\n    IUniswapV2Factory public factory;\n    IUniswapV2Router02 public router;\n    address public weth;\n    address public goblin;\n\n    /// @dev Create a new add two-side optimal strategy instance.\n    /// @param _router The Uniswap router smart contract.\n    constructor(IUniswapV2Router02 _router, address _goblin) public {\n        factory = IUniswapV2Factory(_router.factory());\n        router = _router;\n        weth = _router.WETH();\n        goblin = _goblin;\n    }\n\n    /// @dev Throws if called by any account other than the goblin.\n    modifier onlyGoblin() {\n        require(isGoblin(), \"caller is not the goblin\");\n        _;\n    }\n\n    /// @dev Returns true if the caller is the current goblin.\n    function isGoblin() public view returns (bool) {\n        return msg.sender == goblin;\n    }\n\n    /// @dev Compute optimal deposit amount\n    /// @param amtA amount of token A desired to deposit\n    /// @param amtB amonut of token B desired to deposit\n    /// @param resA amount of token A in reserve\n    /// @param resB amount of token B in reserve\n    function optimalDeposit(\n        uint256 amtA,\n        uint256 amtB,\n        uint256 resA,\n        uint256 resB\n    ) internal pure returns (uint256 swapAmt, bool isReversed) {\n        if (amtA.mul(resB) >= amtB.mul(resA)) {\n            swapAmt = _optimalDepositA(amtA, amtB, resA, resB);\n            isReversed = false;\n        } else {\n            swapAmt = _optimalDepositA(amtB, amtA, resB, resA);\n            isReversed = true;\n        }\n    }\n\n    /// @dev Compute optimal deposit amount helper\n    /// @param amtA amount of token A desired to deposit\n    /// @param amtB amonut of token B desired to deposit\n    /// @param resA amount of token A in reserve\n    /// @param resB amount of token B in reserve\n    function _optimalDepositA(\n        uint256 amtA,\n        uint256 amtB,\n        uint256 resA,\n        uint256 resB\n    ) internal pure returns (uint256) {\n        require(amtA.mul(resB) >= amtB.mul(resA), \"Reversed\");\n\n        uint256 a = 997;\n        uint256 b = uint256(1997).mul(resA);\n        uint256 _c = (amtA.mul(resB)).sub(amtB.mul(resA));\n        uint256 c = _c.mul(1000).div(amtB.add(resB)).mul(resA);\n\n        uint256 d = a.mul(c).mul(4);\n        uint256 e = Math.sqrt(b.mul(b).add(d));\n\n        uint256 numerator = e.sub(b);\n        uint256 denominator = a.mul(2);\n\n        return numerator.div(denominator);\n    }\n\n    /// @dev Execute worker strategy. Take LP tokens + ETH. Return LP tokens + ETH.\n    /// @param user User address\n    /// @param data Extra calldata information passed along to this strategy.\n    function execute(address user, uint256, /* debt */ bytes calldata data)\n        external\n        payable\n        onlyGoblin\n        nonReentrant\n    {\n        // 1. Find out what farming token we are dealing with.\n        (address fToken, uint256 fAmount, uint256 minLPAmount) = abi.decode(data, (address, uint256, uint256));\n        IUniswapV2Pair lpToken = IUniswapV2Pair(factory.getPair(fToken, weth));\n        // 2. Compute the optimal amount of ETH and fToken to be converted.\n        if (fAmount > 0) {\n            fToken.safeTransferFrom(user, address(this), fAmount);\n        }\n        uint256 ethBalance = address(this).balance;\n        uint256 swapAmt;\n        bool isReversed;\n        {\n            (uint256 r0, uint256 r1, ) = lpToken.getReserves();\n            (uint256 ethReserve, uint256 fReserve) = lpToken.token0() == weth ? (r0, r1) : (r1, r0);\n            (swapAmt, isReversed) = optimalDeposit(ethBalance, fToken.myBalance(), ethReserve, fReserve);\n        }\n        // 3. Convert between ETH and farming tokens\n        fToken.safeApprove(address(router), 0);\n        fToken.safeApprove(address(router), uint256(-1));\n        address[] memory path = new address[](2);\n        (path[0], path[1]) = isReversed ? (fToken, weth) : (weth, fToken);\n        if (isReversed) {\n            router.swapExactTokensForETH(swapAmt, 0, path, address(this), now); // farming tokens to ETH\n        } else {\n            router.swapExactETHForTokens.value(swapAmt)(0, path, address(this), now); // ETH to farming tokens\n        }\n        // 4. Mint more LP tokens and return all LP tokens to the sender.\n        (,, uint256 moreLPAmount) = router.addLiquidityETH.value(address(this).balance)(\n            fToken, fToken.myBalance(), 0, 0, address(this), now\n        );\n        require(moreLPAmount >= minLPAmount, \"insufficient LP tokens received\");\n        lpToken.transfer(msg.sender, lpToken.balanceOf(address(this)));\n    }\n\n    /// @dev Recover ERC20 tokens that were accidentally sent to this smart contract.\n    /// @param token The token contract. Can be anything. This contract should not hold ERC20 tokens.\n    /// @param to The address to send the tokens to.\n    /// @param value The number of tokens to transfer to `to`.\n    function recover(address token, address to, uint256 value) external onlyOwner nonReentrant {\n        token.safeTransfer(to, value);\n    }\n\n    function() external payable {}\n}\n",
  "sourcePath": "/home/roman/Documents/Projects/front-running/contracts/AlphaStrat.sol",
  "compiler": {
    "name": "solc",
    "version": "0.5.16+commit.9c3226ce.Emscripten.clang"
  },
  "schemaVersion": "3.3.3",
  "updatedAt": "2021-01-18T10:41:17.165Z",
  "devdoc": {
    "methods": {
      "constructor": {
        "details": "Create a new add two-side optimal strategy instance.",
        "params": {
          "_router": "The Uniswap router smart contract."
        }
      },
      "execute(address,uint256,bytes)": {
        "details": "Execute worker strategy. Take LP tokens + ETH. Return LP tokens + ETH.",
        "params": {
          "data": "Extra calldata information passed along to this strategy.",
          "user": "User address"
        }
      },
      "isGoblin()": {
        "details": "Returns true if the caller is the current goblin."
      },
      "isOwner()": {
        "details": "Returns true if the caller is the current owner."
      },
      "owner()": {
        "details": "Returns the address of the current owner."
      },
      "recover(address,address,uint256)": {
        "details": "Recover ERC20 tokens that were accidentally sent to this smart contract.",
        "params": {
          "to": "The address to send the tokens to.",
          "token": "The token contract. Can be anything. This contract should not hold ERC20 tokens.",
          "value": "The number of tokens to transfer to `to`."
        }
      },
      "renounceOwnership()": {
        "details": "Leaves the contract without owner. It will not be possible to call `onlyOwner` functions anymore. Can only be called by the current owner.     * > Note: Renouncing ownership will leave the contract without an owner, thereby removing any functionality that is only available to the owner."
      },
      "transferOwnership(address)": {
        "details": "Transfers ownership of the contract to a new account (`newOwner`). Can only be called by the current owner."
      }
    }
  },
  "userdoc": {
    "methods": {}
  }
}